:03000000020C8669
:0C0C8600787FE4F6D8FD7581930200260B
:10047A0041542B4349504D55583D310D0A004154C2
:10048A002B4349505345525645523D312C3830384A
:10049A00300D0A000D0A0067657474656D70003FBF
:1004AA00065B4F666D7D077F6F777C395E797100D9
:1004BA0040761E7038375C733E783D6750376EBFA2
:1004CA0086DBCFE6EDFD87FFEF4601020408102028
:1004DA004080008C0095009F00A800B200BC00C7B5
:1004EA0000D200DE00E900F601030110011E012D11
:1004FA00013D014D015D016F0181019301A701BB1E
:10050A0001D001E601FD0215022E02470262027EB7
:10051A00029B02B802D702F603170338035A037D77
:10052A0003A103C503EB04110438045F048804B172
:10053A0004DB05050530055B058605B305DF060CFA
:10054A0006390666069406C206EF071D074B0778AA
:10055A0007A607D30800082D0859088608B108DD40
:10056A0009080932095D098609AF09D709FF0A2670
:10057A000A4D0A730A980ABC0AE00B030B250B47BB
:10058A000B680B880BA80BC60BE40C010C1E0C3A6B
:10059A000C550C6F0C890CA20CBB0CD30CEA0D0089
:1005AA000D170D2C0D410D550D680D7C0D8E0DA0EE
:1005BA000DB20DC30DD30DE30DF30E020E110E1F76
:1005CA000E2C0E3A0E470E530E5F0E6B0E760E82EF
:1005DA000E8C0E970EA10EAA0EB40EBD0EC60ECF2D
:1005EA000ED70EDF0EE70EEE0EF60EFD0F040F0A03
:1005FA000F110F170F1D0F230F290F2F0F340F394C
:10060A000F3E0F430F480F4D0F510F560F5A0F5EF3
:10061A000F620F66000102000300000004000000E0
:04062A0000000000CC
:100B34007C807D00120421E47B807A3EF9F8120364
:100B440083D3EF9400EE94004005EF1F70011E8FD5
:070B5400AAEE4480F5AB227C
:070C14007FFA120C1B7FFAAE
:0F0C1B007DA57C06ED1D70011C144C70F7DFF1F8
:010C2A0022A7
:100C5700E4FEEF25E0FF92C0D2C3C2C30EBE08F286
:010C6700226A
:100AE100E56E9004D493F4FF120C577422256EF82E
:100AF100E69004A993FF120C57D2CCC2CC056EE547
:0A0B01006EC394084003E4F56E2271
:0C0A4E00EF256AF56AEE3569F5697F0353
:100A5A00E4F5BDF5BEE5BC54E044084FF5BC000022
:100A6A000000E5BC30E4FB53BCEFAFBDEF75F0040A
:0D0A7A00A4FFAEF0E5BE5403FDEF4DFF22DA
:03000B00020B5B8A
:100B5B00C0E0C083C082C0D075D000C000C006C04A
:100B6B0007120AE1D201D007D006D000D0D0D08234
:050B7B00D083D0E03240
:10088300E4F593F594F591F592F595F596F5B1F5B3
:10089300B2F5B3F5B4F5C9F5CAF5CBF5CCF5E1F589
:1008A300E2F56E759D0C75BCE0758E80758CA9752F
:1008B3008A9AD2A9D28CD2AF7F0878227410F60814
:1008C300DFFC752A1AE4F56DF52FF530752E05D288
:0C08D300AFD297D296D2C7D2C6752B01C7
:0108DF0022F6
:04062E008E0C8F0D92
:10063200C3E4950DF50D7410950CF50CC3E50D94FE
:100642008CE50C940050057EFF7FFE22D3E50D94CD
:1006520066E50C940F40057EFF7FFF22E4F5127FD2
:10066200A0FBEFC313FEE512C3132EFE75F002A426
:1006720024DCF582E5F03404F583C3740193950D0F
:10068200E493950C4004AF0680028E120BBB05D298
:10069200850F82850E8375F002E51212041574012E
:1006A20093B50D07E493B50C02803F850F82850E4A
:1006B2008375F002EF120415740193B50D08E493EB
:1006C200B50C03EF8026E512D39F400302078E0587
:1006D20012850F82850E8375F002E51212041574DD
:1006E2000193B50D13E493B50C0EE51275F00AA44F
:1006F20085F010F51102078E850F82850E8375F045
:1007020002E512120415D3740193950DE493950C2E
:1007120040B41512850F82850E8375F002E5121220
:100722000415E493F510740193F511E5122401FF09
:10073200E433FEEF25E0FFEE33FEE50F2FF582E511
:100742000E3EF583C37401939511FBE4939510FA61
:10075200C3E50D9511FFE50C9510FE7C007D0A1294
:1007620002E0AD03AC021202F2AB07751000851273
:1007720011AE10AF117C007D0A1202E08E108F11B3
:10078200AF03EF2511F511E43510F510AE10AF11DE
:010792002244
:100BA500C297120C14D297C296120C14D296C2C7D1
:0D0BB500120C14D2C7C2C6120C14D2C622F4
:10093600E52FC3940A4011E52FD39417500AE52FEB
:1009460075F00A84F5228003752210E52F75F00AEA
:100956008485F023752411E53075F00A84F525E5C4
:100966003075F00A8485F026E52E75F00A84F528A0
:0D097600E52E75F00A8485F0297527112201
:100C2B001202B56010F599D2002000FD740129F96C
:060C3B00E43AFA80EB220E
:100BFA00AD07AC06538EEF538EF7438E048CD6AFF7
:0A0C0A00058FD753AFFB438E102275
:1009CB00BF020C438E017FD07EFF120BFA801BC23D
:1009DB008E538EFE438E405389BF5389CF758DFF47
:1009EB00758BD0C2AB538FFDD28EE598543F4440EC
:1009FB00F598D2ACD29C53A23F43A280C200E4F53F
:040A0B0036F5352265
:03002300020A8747
:100A8700C0E0C0D075D000C000309815C29874740B
:100A97002535F8A6990535E535C394204003753506
:0F0AA70000309904C299C200D000D0D0D0E03204
:100B0B00E4F593F594F591F592F595F596F5B1F528
:100B1B00B2F5B3F5B4F5C9F5CAF5CBF5CCF5E1F5FE
:090B2B00E27F011209CBD2AF22D6
:040CD2007F3CDFFE86
:010CD60022FB
:10081100AE337580F0120CD2E58054F0F53375805B
:100821000F120CD2E580540F42336333FFEE653370
:10083100704CAE2D85332DE52D6040C2D5EE700490
:10084100D2D58012EEB52D0E0531E531C394144099
:1008510005753112D2D530D525E52DC4540F90063A
:100861001E93FE6019E52D540F93FF6011EE25E0F4
:1008710025E0FEEF2E240CF52C8003E4F531758084
:01088100FF77
:010882002253
:070C9200D291120C99D290DF
:040C99007F0BDFFEF0
:010C9D002234
:0D0C7900120C92C291120C99C290020C99BB
:0A0CB600C291120C94D291020C9925
:0A0CC000C291120C94C290020C992C
:08000300120C92C290020C994C
:0A0C4100AC07120C797FA2120BC25F
:0C0C4B00120C92A29192D5C290020C995A
:020BC200AE077C
:100BC4007D08EE30E704D2918002C291EE25E0FE6A
:0A0BD400120C94C290120C99DDE897
:010BDE0022F4
:100BDF007D08D291D290120C99EE25E0FE30910152
:0A0BEF000EC290120C99DDECAF0667
:010BF90022D9
:100AB600120C4120D522AF04120BC2120C4B20D5CA
:100AC600171202B5FF120BC2740129F9E43AFA12A1
:0B0AD6000C4B20D503D51BE9020CB629
:100A0F00120C4120D536AF04120BC2120C4B20D55D
:100A1F002B120C797FA3120BC2120C4B20D51D1277
:100A2F000BDFEF1202CE740129F9E43AFAE5736491
:0F0A3F00016003120CC0D573E6120003020CB65F
:10098300E4F593F594F591F592F595F596F5B1F5B2
:10099300B2F5B3F5B4F5C9F5CAF5CBF5CCF5E1F588
:1009A300E2758E80758CA9758A9AD2A9D28CD2AF42
:1009B3007F0878227410F608DFFCE4F534F52CF593
:0709C3002DF533F531F5219C
:0109CA00220A
:10000E00758920758DFD758BFDE4F587759850D239
:04001E00ACD28E22B0
:080CCA0012000EC2990208E0BD
:1008E000750CFF750D04750E7A750FFF7510047584
:1008F0001188AB0CAA0DA90E1202B56014F599303F
:1009000099FDC2997401250EF50EE4350DF50D80A3
:10091000E17F0A120C1BAB0FAA10A9111202B560DD
:1009200014F5993099FDC29974012511F511E4353A
:0509300010F51080E14C
:01093500229F
:0C0C9E00C2AC8F993099FDC299D2AC22F3
:0C0CAA00C2AC8F993099FDC299D2AC22E7
:100B80008B148A158916AB14AA15A9161202B56022
:100B9000130516E5167002051514F91202B5FF12B9
:050BA0000CAA80E22216
:100C6800120C9E7F0A120C1B7BFF7A04799E020BE2
:010C780080FB
:030023000207933E
:10079300C0E0C0F0C083C082C0D075D000C000C02C
:0D07A30001C002C003C004C005C006C007AD
:1007B000859913C298E513643A6007E532D3940033
:1007C0004034E513640A7025FE74A1B5370BEEB40E
:1007D0000407AF6AAE69120C687532007E007F3282
:1007E0007D007B007A00793712044E80097437252A
:0607F00032F8A6130532E9
:1007F600D007D006D005D004D003D002D001D00057
:0B080600D0D0D082D083D0F0D0E03200
:10002600E4F50B120883120983120B0B120CCAE5B6
:10003600366535601720001474742536F8E6F50B1E
:100046000536E536C394204003E4F5363001E0C2B8
:10005600010521E521C394324006E4F52112081179
:10006600E52C6010F509E4F50AFB7A007909120C13
:100076002BE4F52CE50B7003020103E52B7068E514
:100086000BB4110C052FE52FC394184003E4F52F8C
:10009600E50BB4120C152FE52FC394005003752FF2
:1000A60017E50BB413170530E530C3943C400EE456
:1000B600F530052FE52F94184003E4F52FE50BB432
:1000C60014181530E530C39400500F75303B152FCA
:1000D600E52FC394005003752F17E50BB41508756B
:1000E6002F0CE4F530F52EE50BB41803E4F52BE5FB
:1000F6000BB41C03752B01120936E4F50B056CE5F0
:100106006C7002056BC394E8E56B94035003020020
:1001160035E52B602FE52F700DE5307009E52E7063
:1001260005120BA5801EE52ED394004004152E80E3
:1001360013752E3BE530D394004004153080051529
:100146002F75303BE4F56BF56CF50874222508F83D
:1001560076100508E508B408F2056DE52B70030274
:100166000266E56D30E003020266E52A75F00A8450
:1001760085F024E52A75F06484E5F075F00A84F5C7
:1001860023E52A75F06484F5227F03120A5A8E69E4
:100196008F6A7F03120A5A120A4E120A4EEF256A16
:1001A600F56AEE3569F569C39410400302024EAF55
:1001B6006AAE6912062E8E698F6AC3E56A9490E567
:1001C6006994014010C2D57470256AF56A74FE35CB
:1001D60069F569800FD2D5C37490956AF56A740182
:1001E6009569F569AE69AF6A7C037DE81202F28F04
:1001F60026AE69AF6A7C037DE81202F27E007F6458
:10020600CFCDCFCECCCE1202F28F27AE69AF6A7CAD
:10021600007D641202F27E007F0ACFCDCFCECCCE17
:100226001202F2EF2420F528AE69AF6A7C007D0A3F
:100236001202F28D29E526700375261020D50302D9
:100246000035752611020035E4F508E508C3940863
:10025600400302003574222508F8E4F6050880EB11
:10026600E52FC3940A4011E52FD39417500AE52FC2
:1002760075F00A84F5228003752210E52F75F00AC1
:100286008485F023752411E53075F00A84F525E59B
:100296003075F00A8485F026E52E75F00A84F52877
:0F02A600E52E75F00A8485F029752711020035C1
:1002B500BB010689828A83E0225002E722BBFE0247
:0902C500E32289828A83E493227A
:1002CE00BB010689828A83F0225002F722BBFE010F
:0202DE00F32209
:1002E000EF8DF0A4A8F0CF8CF0A428CE8DF0A42E32
:0202F000FE22EC
:1002F200BC000BBE0029EF8DF084FFADF022E4CCF0
:10030200F875F008EF2FFFEE33FEEC33FCEE9DECB8
:10031200984005FCEE9DFE0FD5F0E9E4CEFD22EDFE
:10032200F8F5F0EE8420D21CFEADF075F008EF2F48
:10033200FFED33FD4007985006D5F0F222C398FD39
:050342000FD5F0EA22D6
:1003470075F008758200EF2FFFEE33FECD33CDCC6D
:1003570033CCC58233C5829BED9AEC99E5829840F0
:100367000CF582EE9BFEED9AFDEC99FC0FD5F0D6CD
:10037700E4CEFBE4CDFAE4CCF9A88222B800C1B9F7
:100387000059BA002DEC8BF084CFCECDFCE5F0CB35
:10039700F97818EF2FFFEE33FEED33FDEC33FCEB6E
:1003A70033FB10D703994004EB99FB0FD8E5E4F929
:1003B700FA227818EF2FFFEE33FEED33FDEC33FC16
:1003C700C933C910D7059BE99A4007EC9BFCE99A0A
:1003D700F90FD8E0E4C9FAE4CCFB2275F010EF2F4F
:1003E700FFEE33FEED33FDCC33CCC833C810D7074F
:1003F7009BEC9AE899400AED9BFDEC9AFCE899F88A
:0E0407000FD5F0DAE4CDFBE4CCFAE4C8F9221C
:0C041500A42582F582E5F03583F58322F2
:10042100EC8EF0A4CCC5F0CCCDF8EFA4CEC5F02D68
:10043100FDE43CFCE8A42EC8C5F03DFDE43CFCEF26
:0D044100A4FFE5F028FEE43DFDE43CFC22B4
:10044E00EF4E6012EF60010EEDBB010B89828A83C5
:10045E00F0A3DFFCDEFA2289F05007F709DFFCA9D2
:0C046E00F022BBFEFCF309DFFCA9F02229
:00000001FF
